:020000040800F2
:1000000000000220BD220008C5210008C721000809
:10001000C9210008CB210008CD2100080000000004
:10002000000000000000000000000000D1420008B5
:10003000CF210008000000007143000821400008A3
:100040000D2300080D2300080D2300080D230008D0
:100050000D2300080D2300080D2300080D230008C0
:100060000D2300080D2300080D2300080D230008B0
:100070000D2300080D2300080D2300080D230008A0
:100080000D2300080D2300080D2300080D23000890
:100090000D2300080D2300080D2300080D23000880
:1000A0000D2300080D2300080D2300080D23000870
:1000B000D12100080D2300080D2300080D2300089E
:1000C0000D2300080D2300080D2300080D23000850
:1000D0000D2300080D2300080D2300080D23000840
:1000E0000D2300080D2300080D2300080D23000830
:1000F0000D2300080D2300080D2300080D23000820
:100100000D2300080D2300080D2300080D2300080F
:100110000D2300080D2300080D2300080D230008FF
:100120000D2300080D230008E1210008F12100083B
:100130000D2300080D2300080D2300080D230008DF
:100140000D2300080D2300080D2300080D230008CF
:100150000D2300080D2300080D2300080D230008BF
:100160000D2300080D2300080D2300080D230008AF
:100170000D2300080D2300080D23000800000000D7
:080180000D2300080D23000807
:1001900010B5054C237833B9044B13B10448AFF3C1
:1001A00000800123237010BD08060020000000001D
:1001B0001876000808B5034B1BB103490348AFF399
:1001C000008008BD000000000C0600201876000822
:1001D00053B94AB9002908BF00281CBF4FF0FF31AE
:1001E0004FF0FF3000F088B9ADF1080C6DE904CE96
:1001F00000F006F8DDF804E0DDE9022304B0704702
:100200002DE9F047089D8E4604468846002B4AD1CA
:100210008A42174662D9B2FA82F64EB1C6F120037D
:1002200001FA06F820FA03F3B74043EA0808B4409D
:100230004FEA174E1FFA87FCB8FBFEF1230C0EFBAA
:10024000118843EA084301FB0CF29A4209D9FB18D2
:1002500001F1FF3080F0EA809A4240F2E7800239F3
:100260003B449A1AA3B2B2FBFEF00EFB102243EA03
:10027000024300FB0CFC9C4509D9FB1800F1FF323E
:1002800080F0D6809C4540F2D3803B44023840EA5F
:100290000140A3EB0C0300211DB1F3400022C5E98E
:1002A0000032BDE8F0878B4205D90DB1C5E90001E8
:1002B00000210846F5E7B3FA83F1002946D17345DA
:1002C00002D3824200F20581841A6EEB0302012000
:1002D0009046002DE5D0C5E90048E2E7002A00F08D
:1002E0009080B2FA82F6002E40F0A4808A1A030CA5
:1002F0004FEA174E80B2BCB20121B2FBFEFC0EFBEE
:100300001C2243EA024304FB0CF29A4207D9FB1871
:100310000CF1FF3802D29A4200F2E080C4469B1AE8
:10032000B3FBFEF20EFB123340EA034302FB04F47C
:100330009C4207D9FB1802F1FF3002D29C4200F226
:10034000CA8002461B1B42EA0C40A5E7C1F1200609
:100350008B4022FA06F71F430EFA01F420FA06F347
:100360002EFA06FE4FEA1749234300FA01F81FFA56
:1003700087FCBEFBF9F01C0C09FB10EE44EA0E44AE
:1003800000FB0CFEA64502FA01F209D93C1900F166
:10039000FF3A80F09C80A64540F2998002383C44A8
:1003A000A4EB0E041FFA83FEB4FBF9F309FB13441C
:1003B0004EEA044403FB0CFCA44508D93C1903F1A4
:1003C000FF3E80F08280A4457FD9023B3C4443EA53
:1003D0000040A4EB0C04A0FB02EC64457346E1462C
:1003E00062D35FD05DB1B8EB030264EB090404FA99
:1003F00006F622FA01F31E43CC40C5E90064002151
:100400004FE7B1FBF2FC010C41EA0E4180B240EA39
:1004100001423B4638463C46B846BE462026B1FB24
:10042000F7F1A2EB080241EA0C4166E7014618E742
:1004300010462CE7C6F120022EFA02F3B740B14075
:1004400020FA02F24FEA174E0A43B3FBFEF8BCB2A1
:100450000EFB1833110C41EA034108FB04F9B040CC
:1004600089454FEA104380B23ED9791808F1FF3C24
:1004700001D289451FD8A1EB0901B1FBFEF909FBA7
:1004800004F80EFB191192B242EA0142424529D208
:10049000BA1809F1FF31C4D24245C2D2A9F1020112
:1004A0003A44BEE7F0459DD2BEEB02036CEB070C6D
:1004B0000138E14696E7A7EB09094944A8F1020C87
:1004C000B1FBFEF909FB04F8DBE773467FE7504612
:1004D00066E70846FDE63B44023A33E7ACF1020C1E
:1004E0003B441CE749469CE7A1EB0901C446B1FB2C
:1004F000FEF909FB04F8C4E7704700BFF6EE007A86
:1005000060EE277A10EE103A074AA2EB630307EE7B
:10051000103A67EE277A67EE277AB7EE080A30EED0
:10052000670A27EE000A7047865A375F10B52DED2F
:10053000048B0446D0F8EC3093ED009A5C4A82EDCF
:10054000009A93ED018A5B4A82ED008AD3ED028A1C
:10055000594AC2ED008AD3ED039A584BC3ED009A75
:1005600069EE097A28EE087A77EE877A28EEA87A7B
:1005700077EE877A29EEA90A37EE800AFFF7BEFFE9
:100580004F4B83ED000A00230BE0D4F8EC2002EB84
:100590008302D2ED007A60EE277AC2ED007A013351
:1005A000DBB2032BF1D9474B93ED6F7A28EE077A34
:1005B000D4F80021F6EE007A27EE277A82ED047A4D
:1005C00093ED6F7A28EE877AD4F8002127EE277A08
:1005D00082ED057A93ED6F7A29EE477AD4F80021FF
:1005E00027EE277A82ED0A7A93ED6F7A29EE877AE1
:1005F000D4F8002127EE277A82ED0B7A93ED6F7AFB
:1006000069EEC79AD4F8002169EEA79AC2ED109A54
:1006100093ED6F7A29EE479AD4F8002129EE279AB4
:1006200082ED119A93ED6F7A68EE878AD4F80021F3
:1006300068EEA78AC2ED168A93ED6F7A28EE478A94
:10064000D4F8002128EE278A82ED178AD4F8F82002
:10065000D2ED1C6A93ED747AC6EE877AC2ED1C7AED
:10066000D4F8F820D2ED236A93ED747AC6EE877A37
:10067000C2ED237AD4F8F83093ED1C7ADFED127ACC
:10068000B4EEE77AF1EE10FA01DDC3ED1C7AD4F88E
:10069000F83093ED237ADFED0C7AB4EEE77AF1EEE1
:1006A00010FA01DDC3ED237ABDEC048B10BD00BF51
:1006B00044060020400600203C06002038060020AA
:1006C00034060020F806002000401C4638B50446D9
:1006D0009022D0F8F810084806F05CFA48252A461F
:1006E000D4F81C11054806F055FA2A46D4F80C1126
:1006F000034806F04FFA38BD00000020B006002085
:10070000680600202DE9F84F044600F1780500F155
:1007100080073946284605F019FB84F8C800B4F86C
:100720007830A4F8A830B4F85A30A4F8AA3004F10C
:10073000580A04F1A80842465146284605F01CFC18
:1007400084F8C800B4F8A830A4F8B030B4F8823007
:10075000A4F8B23004F1B0094A463946404605F0E3
:100760000BFC84F8C800B4F89030A4F8A030B4F8BA
:100770009230A4F8A23004F1A0052A4604F19001B9
:10078000484605F039FE84F8C8004946284605F079
:1007900003FD84F8C800D4F8EC30D3ED007AC54AE4
:1007A000C2ED007A93ED016AC34A82ED006AD3ED8F
:1007B000026AC24AC2ED006A93ED037AC04B83ED30
:1007C000007AB4F87830A4F8B8300123A4F8BA302D
:1007D00066EE075A27EEA65A75EEC55AD4F82C31A4
:1007E00075EEA55AC3ED005A67EE865A26EE875A73
:1007F00075EE855AD4F82C3175EEA55AC3ED015A21
:1008000067EEA77A26EE066A77EEC67A66EEA66AE5
:1008100077EEE67A27EE077AD4F82C3177EE877AEE
:10082000C3ED027A002512E0D4F82C3103EB8503E6
:1008300093ED000AB0EEC00A06F034FB05F1600249
:10084000A04B03EB820383ED010A0135EDB2022DCB
:10085000EAD9B4F84830A4F8C0304FF0010BA4F83E
:10086000C2B004F1B80504F1C0063246294604F1CD
:10087000480005F015FB84F8C800B4F8C030A4F8AF
:10088000A830A4F8AAB042463146484605F074FBA9
:1008900084F8C800A4F8B8B0B4F8C030A4F8BA30EE
:1008A0002946304605F052FA84F8C800DFF828B22D
:1008B0005A464146284605F05FFB84F8C8009BED88
:1008C000027ADBED037AABF5E07BF6EE006A67EEC9
:1008D000A66AB4EEE67AF1EE10FA02D501228BF8A0
:1008E0003821B4EEE77AF1EE10FA45DD754B93F856
:1008F0003831002B40D0734B93F83931DBB1714A5A
:10090000D2F84031D2F84411013341F10001C2F86C
:100910004031C2F844116B4BD3F84021D3F8443135
:10092000332A73F100030CD30023664A82F838316E
:1009300084F82C3046E0634B00200021C3E95001CD
:10094000E9E7227B604D2B8803FB02F2D4F8EC1020
:10095000D4F8E80006F01EF9227B2B8802FB03F393
:1009600003FB02F2D4F8FC10D4F8F80006F012F9F8
:10097000012384F82C309AE0DFED546A67EEA66A12
:10098000B4EEE67AF1EE10FA0FDD4E4B93F8383103
:100990005BB137EEC77ADFED4E6A67EEA67AC7EE37
:1009A000276A484BC3ED676A04E0464B4FF07E521E
:1009B000C3F89C21434B00200021C3E950010023D0
:1009C00084F82C30B4F85830A4F8A830B4F8823049
:1009D000A4F8AA3042463946504605F0CDFA84F8CC
:1009E000C80004F198073A464946404605F0C4FA63
:1009F00084F8C80000230EE0D4F81C2102EB830227
:100A0000D2ED007A2F4991ED677A67EE877AC2EDD1
:100A1000007A0133DBB2B4F89820B4F89A1001FBE5
:100A200002F29342E8DB042201E00132D2B2052A4D
:100A30001DD80023022BF8D8D4F81C1102EB420079
:100A4000184401EB8001D1ED007A02F15C0C1D48E5
:100A500000EB8C0090ED016ADFED1E6A86EE267ACF
:100A600067EE877AC1ED007A0133DBB2E2E7B4F8D2
:100A70009830A4F8B8300123A4F8BA302A46314699
:100A8000384605F079FA84F8C8000E4B93F83831EF
:100A9000002B50D1D4F8BC300022DA6004F13002CF
:100AA000294604F1380005F0A7FC84F8C800BDE829
:100AB000F88F00BF64060020600600205C0600205E
:100AC00058060020F80600201E090020CDCCCC3DA1
:100AD0006666663FDA0FC93FB80800200133DBB213
:100AE000052BD7D8D4F8BC20990002EB830292EDF5
:100AF000007A1248D0ED6F7ADFED116A67EEA67AC0
:100B0000B4EEE77AF1EE10FA01DDC2ED007AD4F826
:100B1000BC200A4492ED007A0849D1ED6F7ADFEDEE
:100B2000096A67EEA67AB4EEE77AF1EE10FAD5D547
:100B3000C2ED007AD2E70423D2E700BFF806002016
:100B40000AD7233C0AD723BC10B52DED048B0446ED
:100B5000D0F8EC3093ED009A39EE099A2E4A82EDE6
:100B6000009A93ED018A38EE088A2C4A82ED008AB9
:100B7000D3ED029A79EEA99A294AC2ED009AD3EDF3
:100B8000038A78EEA88A274BC3ED008A827B264B26
:100B90001B8802FB03F3027B03FB02F20021D0F867
:100BA0000C0105F073FFD4F80C31F1EE697AC3ED56
:100BB000007AD4F80C31C3ED018AD4F80C31B1EECF
:100BC000497A83ED027AD4F80C3183ED038AD4F8A4
:100BD0000C3183ED068AD4F80C3183ED079AD4F8F2
:100BE0000C31C3ED088AD4F80C31C3ED099AD4F85E
:100BF0000C3183ED0C9AD4F80C31B1EE488A83EDB8
:100C00000D8AD4F80C31C3ED0E7AD4F80C31C3ED53
:100C10000F8ABDEC048B10BD540600205006002046
:100C20004C060020480600201E09002038B52F4B36
:100C300001221A7083ED6C0AC3ED6D0A83ED6E1A02
:100C40002B4AC3F8CC21002283F838210020002150
:100C5000C3E95001C3E95201F7EE007AF4EEE71A56
:100C6000F1EE10FA01DDF0EE671A204CC4ED741AB3
:100C700084ED642A032300220621201D00F04AFC93
:100C800004F5E4730122114604F5E07005F0B0FBB1
:100C9000D4F8EC304FF07E521A60D4F8EC200023E8
:100CA0005360D4F8EC209360D4F8EC20D360114B5F
:100CB000C4F8D030104BC4F8D430104BC4F8D8303E
:100CC0000F4BC4F8DC30012384F82E3084F82F3029
:100CD00090252A460B49D4F8040105F05BFF2A460B
:100CE0000949D4F8FC0005F055FF38BDF80600208E
:100CF00077CC2B32CD0600082D050008490B0008E3
:100D000005070008307600080000002010B52DED22
:100D1000088BB0EE409AB0EE608AF0EE418AF0EEB9
:100D200061AAB0EE42AAF0EE629AB0EE43BA894BE5
:100D30001B78002B00F0B880864C84ED6FBAD4EDA0
:100D4000587A39EE670A84ED5B0AD4ED597A78EE69
:100D5000670AC4ED5C0AD4ED5A7A38EEE71A84EDDE
:100D60005D1AF6EE007A20EE279A29EE0B9A7A4B5E
:100D700083ED009A20EEA78A28EE0B8A774B83ED4D
:100D8000008A61EE278A68EE8B8A754BC3ED008A74
:100D900090227449D4F8040105F0FCFED4F8043123
:100DA000F1EE497AC3ED017AD4F80431F1EE486AE4
:100DB000C3ED026AD4F80431B1EE687A83ED037AA8
:100DC000D4F8043183ED069AD4F80431C3ED088ACF
:100DD000D4F80431C3ED096AD4F8043183ED0C8AE8
:100DE000D4F8043183ED0D7AD4F8043183ED0F9AF1
:100DF000D4F80431C3ED128AD4F8043183ED138A98
:100E0000D4F80431C3ED147AD4F84831D4F84C2125
:100E1000134305D1C4ED5EAA84ED5FAAC4ED609AC8
:100E20004C4B93ED5E7AD3ED645A27EE257A93ED21
:100E30006F6A75EE866AC7EE267A66EE2AAA8AEE91
:100E4000A67A77EE877AC3ED5E7A93ED5F5A25EE48
:100E5000855A85EE267A26EE0AAA8AEE265A37EEBB
:100E6000057A83ED5F7A93ED605A65EE855A85EEDB
:100E7000A60A26EE296AC6EE265A30EE250A83ED2A
:100E8000600A67EEA77A27EE077A77EE877A20EE78
:100E9000000A37EE800AFFF731FBB0EE408A324B92
:100EA00083ED000A00231CE09FED302AF7EE001AC4
:100EB0009FED2F1ADFED2F0AB2EE040AFFF7B6FE00
:100EC0003AE7244903F15E0201EB8202D2ED007A97
:100ED0008A6802EB830268EE277AC2ED007A01335A
:100EE000DBB2022BEDD91B4C94ED5B0A20EE000A1D
:100EF000D4ED5C7A67EEA77A70EE277A94ED5D0AFE
:100F000020EE000A37EE800AFFF7F8FAB7EE007A13
:100F1000C7EE007AC4ED657AC7EE086AC4ED666A6A
:100F20009FED157AF4EEC77AF1EE10FA2AD5DFEDCF
:100F3000137AF4EEE76AF1EE10FA23DDDFED107AB2
:100F4000F4EEE76AF1EE10FA1CD5012284F839219B
:100F50001CE000BFF8060020300600202C06002010
:100F6000280600203076000824060020000000003B
:100F70008096184B6F12833A9A99993ECDCC1441C2
:100F8000CDCC2441744B002283F83921724CD4ED2E
:100F90006C7A94ED6F7AD4F8183167EE877AC3EDE6
:100FA000007AD4ED6C7A94ED6F7AD4F8183167EE4C
:100FB000877AC3ED077AD4ED6C7A94ED6F7AD4F822
:100FC000183167EE877AC3ED0E7AD4ED6C7A94ED22
:100FD0006F7AD4F8183167EE877AC3ED157AD4EDBD
:100FE0006D7A94ED6F7AD4F8183167EE877AC3ED95
:100FF0001C7AD4ED6D7A94ED6F7AD4F8183167EEDF
:10100000877AC3ED237AD4F81C21D4F8B831136061
:10101000D4F81C211361D4F81C31D4F8B8211A6219
:10102000201D00F0FBFD6368D3ED008AC4ED548AF7
:1010300093ED018A84ED558AD3ED02AAC4ED56AA38
:1010400093ED03AA84ED57AA1A69C4F860215B697D
:10105000C4F864310023C4F8683128EE8A0A68EEC7
:101060002A7A30EE270A28EEA89A68EE080A79EE66
:10107000200A70EEA00AF7EE00BA70EEEB0A30EE2E
:10108000000A05F067FF9FED35BA60EE0B9AC4EDDC
:101090006A9A28EE880A6AEE8A7A30EE270A6AEEA1
:1010A0000A7A39EE279A39EE099A79EE6B0A30EE10
:1010B000000A05F04FFF20EE0B0A84ED690A28EEC6
:1010C0000A8A68EEAA8A38EE688AB8EE000A28EE24
:1010D000000A05F013FF20EE0B0A84ED680AD4ED38
:1010E000767A79EEE77A9FED1E7AF4EEC77AF1EE22
:1010F00010FA23DDB4F9D431013BA4F8D431164BF6
:10110000B3F9D42107EE902AF8EEE77A9FED157A2D
:1011100067EE877A79EEA77AC3ED6B7AC3ED769A9C
:10112000D3F84821D3F84C11013241F10001C3F842
:101130004821C3F84C11BDEC088B10BD9FED0A7A15
:10114000F4EEC77AF1EE10FAD9D5034AB2F9D431E8
:101150000133A2F8D431D2E7F8060020E12E65422F
:10116000000034430000B443000034C308B500223B
:101170001021024801F0C2FF08BD00BF000002407C
:1011800008B501221021024801F0B8FF08BD00BFD8
:101190000000024008B500220121024801F0AEFF24
:1011A00008BD00BF0004024008B5012211460248F4
:1011B00001F0A4FF08BD00BF0004024000B587B0E5
:1011C0008DF80F004FF47A73009301230DF117028D
:1011D0000DF10F010448006802F0D7FB9DF81700DD
:1011E00007B05DF804FB00BFD808002038B50D46F5
:1011F000144640F08000FFF7E1FF06E05520FFF7BE
:10120000DDFF05F8010B013CE4B2002CF6D138BD3E
:1012100038B50546FFF7AAFF9220FFF7CFFF734CC2
:10122000062221461220FFF7E1FFFFF7A9FF6378AE
:101230001B021BB2227813436D4A138007EE903ACB
:10124000F8EEE77A6B4991ED007A67EE877A95EDD3
:10125000087A67EE877AC5ED007AE3781B021BB245
:10126000A07803431380D1ED006A07EE903AF8EEC0
:10127000E77A67EEA67A67EE277AC5ED017A637999
:101280001B021BB221790B43138007EE903AF8EE54
:10129000E77A67EEA67A27EE277A85ED027AFFF7DE
:1012A00079FF082221460020FFF7A0FFFFF77CFF0F
:1012B00023780F2B2BD0FFF759FFA220FFF77EFFDB
:1012C0004A4C022221462220FFF790FFFFF758FFE9
:1012D000227863785B0943EAC203454A1380B3F579
:1012E000806F02DBA3F500631380414BB3F900303C
:1012F00007EE903AF8EEE77AB4EE007A67EE877A76
:10130000B3EE077A77EE877AC5ED077A38BD3A4BA8
:101310001B78002B3AD0E3781B021BB2A1780B4359
:1013200033490B80354890ED007A07EE903AF8EE9D
:10133000E77A67EE877AD5ED096A77EEE67AC5ED4A
:10134000037A63791B021BB2207903430B8007EEFB
:10135000903AF8EEE77A67EE877AD5ED0A6A77EE8B
:10136000E67AC5ED047AE3791B021BB2A279134336
:101370000B8007EE903AF8EEE77A67EE877A95ED04
:101380000B7A77EEC77AC5ED057A94E7174AD378DA
:101390001B021BB291780B4315490B80174890ED47
:1013A000007A07EE903AF8EEE77A67EE877AC5EDB5
:1013B000037A53791B021BB2107903430B8007EEAB
:1013C000903AF8EEE77A67EE877AC5ED047AD3793A
:1013D0001B021BB2927913430B8007EE903AF8EE92
:1013E000E77A67EE877AC5ED057A64E7E0080020C2
:1013F000DC080020980000209000002094000020CD
:1014000070B5044600250574827B414E338803FB8A
:1014100002F24168D0F8F40005F0BCFBA27B3388EF
:1014200003FB02F22946606805F030FBA27B33889B
:1014300002FB03F303FB02F22946D4F8180105F07E
:1014400025FB227B338802FB03F3A27B03FB02F222
:101450002946D4F80C0105F019FB294601E00131B9
:10146000C9B2A37B8B422AD9D4F8F4304FEA810C5D
:1014700003EB8102D2ED007AF5EE407AF1EE10FA3C
:10148000EDD0227C03EB8203C3ED007A626A237CF9
:10149000D154A069D4F80C2194F80CE0257C636940
:1014A0005B5C05FB0E3303F18043013B02EB8302DF
:1014B000604403681360237C01332374CFE7002367
:1014C0000FE0E069616A11F803C0D4F8181102FB5B
:1014D000033201EB820100EB8C0002680A600133E9
:1014E000DBB2227C9A42ECD8A4F87820237BA4F8C3
:1014F0007A30A4F88030A4F88220A4F89020A4F8D0
:101500009220A4F89830A4F89A20A4F8482070BD3E
:101510001E0900202DE9F04704460D4691461E465F
:10152000DFF8B8830423A8F80030EB4B08221A80B8
:10153000017380F80D90867300270774304605F01C
:1015400057F860613246394605F0A0FAB8F800A0B5
:1015500006FB0AFA504605F04BF8A06152463946A0
:1015600005F094FAB8F800A006FB0AFA504605F018
:101570003FF8E0615246394605F088FAB8F800A015
:1015800005FB0AFA504605F033F820625246394608
:1015900005F07CFA304605F02BF860623246394699
:1015A00005F074FAB8F800A005FB0AFA504605F0F9
:1015B0001FF820605246394605F068FAB8F800A0D6
:1015C00006FB0AFA504605F013F8606052463946A9
:1015D00005F05CFAB8F800A009FB0AFA504605F0DD
:1015E00007F8A0605246394605F050FAB8F800A056
:1015F00005FB0AFA504604F0FBFFC4F8E800524627
:10160000394605F043FAD4F8E8300122217B04F191
:10161000300004F0EDFEB8F8008005FB08F8404605
:1016200004F0E6FFC4F8EC004246394605F02EFA15
:10163000D4F8EC300122217B04F1380004F0D8FE0C
:10164000B9F1000F40F04C81DFF89082B8F80070DB
:1016500006FB07F7384604F0CBFFC4F8F4003A461F
:10166000002105F013FAD4F8F4300122A17B04F133
:10167000480004F0BDFEB8F8007005FB07F705FB55
:1016800007F7384604F0B4FFC4F8F8003A460021E2
:1016900005F0FCF9217BD4F8F8300A4604F150003B
:1016A00004F0A6FEB8F8007005FB07F705FB07F786
:1016B000384604F09DFFC4F8FC003A46002105F0CE
:1016C000E5F9217BD4F8FC300A4604F1580004F017
:1016D0008FFEB8F8007005FB07F705FB07F73846E3
:1016E00004F086FF8246C4F80001384604F080FF0B
:1016F000C4F804013A460021504605F0C7F9B8F88D
:10170000002005FB02F205FB02F20021D4F80401DF
:1017100005F0BCF9217BD4F800310A4604F16000E1
:1017200004F066FE217BD4F804310A4604F1680017
:1017300004F05EFEB9F1000F40F0E880674FB7F8A3
:1017400000A00AFB06F909FB05F9484604F050FF22
:101750008046C4F80C010AFB05F006FB00F004F01B
:1017600047FFC4F810014A460021404605F08EF9B3
:101770003A8805FB02F206FB02F20021D4F81001C0
:1017800005F084F9D4F80C31227BA17B04F17800B8
:1017900004F02EFED4F81031A27B217B04F18000EE
:1017A00004F026FEB7F8008005FB08F808FB05F8F2
:1017B000404604F01DFFC4F814014246002105F024
:1017C00065F9217BD4F814310A4604F1880004F04D
:1017D0000FFEB7F8008006FB08F808FB06F8404645
:1017E00004F006FFC4F818014246002105F04EF946
:1017F000A17BD4F818310A4604F1900004F0F8FDFA
:101800003B8805FB03F303FB06F6304604F0F0FECD
:10181000C4F81C013246002105F038F9D4F81C3117
:10182000A27B217B04F1980004F0E2FD94F80C8087
:101830003E8808FB06F606FB08F5284604F0D8FEAD
:101840000746C4F82001284604F0D2FEC4F824015B
:10185000284604F0CDFEC4F82801304604F0C8FE46
:10186000C4F82C01304604F0C3FEC4F830013B46F6
:101870004246414604F1A00004F0BAFD217BD4F8B1
:1018800024310A4604F1A80004F0B2FD217BD4F80B
:1018900028310A4604F1B00004F0AAFDD4F82C3136
:1018A0000122217B04F1B80004F0A2FDD4F830310C
:1018B0000122217B04F1C00004F09AFD002384F88A
:1018C000283084F8293084F82A3084F82B3084F8C2
:1018D0002C30BDE8F08700BF1C0900201E09002045
:1018E000164B1F8809FB07F7384604F081FEC4F841
:1018F000F0003A46002105F0C9F8D4F8F030012292
:10190000617B04F1400004F073FD9DE6B8F80030FF
:1019100005FB03F303FB09F9484604F069FEC4F82C
:1019200008014A46002105F0B1F8D4F80831627B7D
:10193000217B04F1700004F05BFDFFE61E0900202E
:1019400038B50446C37B63B1FFF75AFD627B0E4B8B
:101950001B8803FB02F2A168D4F8F00005F01AF925
:1019600038BD827B084D2B8803FB02F24168D0F81A
:10197000F40005F00FF9A27B2B8803FB02F2002193
:10198000606805F083F8E1E71E09002090F8283030
:10199000B3BB70B50446437B43B3037BA0F8B830B8
:1019A0000126A0F8BA6000F1B8052A4600F130011E
:1019B000603004F0E1FA84F8C800237BA4F8C0305A
:1019C000A4F8C26004F1C006324604F1400104F1FB
:1019D000700004F0D1FA84F8C80004F138023146EE
:1019E000284604F009FD84F8C80070BD00F13802F3
:1019F00000F13001603004F0BFFA84F8C800F4E769
:101A00007047F8B590F8293003B1F8BD044600F1ED
:101A1000600600F168073946304604F097F984F80B
:101A2000C80004F158052A4604F15001304604F07C
:101A3000A3FA84F8C800B4F85830A4F8A830B4F871
:101A40006A30A4F8AA3004F1A8063246394628467E
:101A500004F092FA84F8C8002A4604F1880130465E
:101A600004F0CAFC84F8C800CFE72DE9F84390F8E9
:101A70002A300BB1BDE8F883044600F1780600F186
:101A800080073946304604F061F984F8C800B4F89C
:101A90007830A4F8A830B4F85A30A4F8AA3004F189
:101AA000580804F1A8052A464146304604F064FA75
:101AB00084F8C800B4F8A830A4F8B030B4F8823084
:101AC000A4F8B23004F1B00632463946284604F094
:101AD00053FA84F8C800B4F89030A4F8A030B4F8F1
:101AE0009230A4F8A23004F1A0094A4604F1900112
:101AF000304604F081FC84F8C8003146484604F0C2
:101B00004BFB84F8C800B4F85830A4F8A830B4F8F7
:101B10008230A4F8AA302A463946404604F02CFA0E
:101B200084F8C80004F198023146284604F024FAEB
:101B300084F8C8009EE790F82B3003B170472DE978
:101B4000F0410446B0F87830A0F8B8300126A0F88B
:101B5000BA6000F1380700F1B8052A4639467830F6
:101B600004F00AFA84F8C800B4F84830A4F8C03089
:101B7000A4F8C26004F1C0084246294604F14800B6
:101B800004F08EF984F8C800B4F89830A4F8B8309E
:101B9000A4F8BA602A46414604F1980004F0ECF932
:101BA00084F8C80004F130022946384604F024FCC9
:101BB00084F8C800BDE8F081F8B590F82C3003B186
:101BC000F8BD0446B0F89830A0F8A830B0F87A20F4
:101BD000A0F8AA20A0F8B030B0F85A30A0F8B2307F
:101BE00000F1A8073A4600F17801983004F0C4F9F2
:101BF00084F8C80004F1580504F1B00632462946BD
:101C0000384604F0B9F984F8C80004F150023146AE
:101C1000284604F045F984F8C800D1E738B50446F1
:101C2000FFF78EFED4F8CC300BB120469847204603
:101C3000FFF7ACFED4F8D0300BB1204698472046D1
:101C4000FFF7DFFED4F8D4300BB120469847237C51
:101C50000BB9E37BCBB92046FFF707FFD4F8D830A8
:101C60000BB1204698472046FFF765FFD4F8DC30DB
:101C70000BB1204698472046FFF79EFFD4F8E0308E
:101C80000BB120469847002319E0227B204D2B887A
:101C900003FB02F2D4F8EC10D4F8E80004F07AFF69
:101CA000227B2B8802FB03F303FB02F2D4F8FC1027
:101CB000D4F8F80004F06EFFE0E70133DBB2227BDA
:101CC0009A4214D9D4F8F81002FB033201EB8202D5
:101CD00092ED007A216A01EB8301D1ED007AB4EE36
:101CE000E77AF1EE10FAE8D5C2ED007AE5E7084BA5
:101CF0001B8803FB02F2D4F8E810206804F04AFFC6
:101D0000D4F8E4300BB120469847206838BD00BFB6
:101D10001E09002010B582B0002401940D4B1A6BEF
:101D200042F480021A631B6B03F480030193019B4E
:101D3000224605213A2000F01DFF3A2000F02AFF3C
:101D4000224605213B2000F015FF3B2000F022FF3A
:101D500002B010BD0038024008B500F03DFC00F0B4
:101D600093FD012002F0F1F9F9E708B500F068FEF3
:101D700008BD08B500F072FE08BD000008B50B4AAA
:101D800000210B4802F086F90A4B18600A4A00212C
:101D90000A4802F07FF90A4B18600A4A00210A48F3
:101DA00002F078F9094B186008BD00BF40770008C1
:101DB000591D0008280900201C7700086B1D000829
:101DC00024090020F8760008731D0008200900206F
:101DD0002DE9F0418AB000240594069407940894F4
:101DE00009940194324B1A6B42F002021A631A6B87
:101DF00002F002020192019A02941A6B42F001026F
:101E00001A631A6B02F001020292029A03941A6B8F
:101E100042F080021A631A6B02F080020392039A66
:101E200004941A6B42F004021A631B6B03F0040360
:101E30000493049BDFF8888022464FF4E05140462B
:101E400001F05CF91B4F22461021384601F056F98B
:101E5000194E22460121304601F050F94FF4E0536B
:101E60000593012506950795089405A9404601F0BC
:101E70004FF81023059306950794089405A9384652
:101E800001F046F8302305934FF488130693079426
:101E900005A90A4801F03CF80595069507940894B1
:101EA00005A9304601F034F80AB0BDE8F08100BF62
:101EB00000380240000002400004024000080240D6
:101EC000001C024008B50368B3F1804F00D008BD84
:101ED00000F0EAFDFBE772B6FEE7000000B595B042
:101EE0003022002108A804F0D1FD002303930493BD
:101EF00005930693079301931F4A116C41F080519B
:101F00001164126C02F080520192019A02931B4AF2
:101F1000116841F480411160126802F4804202921B
:101F2000029A0222089201210B9110210C910E922B
:101F30000F9308231093A823119312920423139351
:101F400008A801F0EBF898B90F2303930223049338
:101F5000002305934FF4A05306934FF48053079347
:101F6000052103A801F02AFB20B915B05DF804FB98
:101F7000FFF7B1FFFFF7AFFF0038024000700040ED
:101F800008B500F077FDFFF7A9FFFFF721FFFFF786
:101F9000C1FE00F009F800F061F902F04DF8FFF71A
:101FA000EDFE02F05BF8FEE708B50E480E4B03604D
:101FB0004FF48273436000238360C3600361012296
:101FC00042614FF4007282611022C2610362436277
:101FD00083620A23C36201F079FC00B908BDFFF7F0
:101FE0007AFFFBE7EC0900200030014030B589B0F2
:101FF0000023039304930593069307930268314BE0
:102000009A4201D009B030BD04460025019503F580
:1020100084335A6C42F480525A645A6C02F48052EF
:102020000192019A02951A6B42F002021A631B6B2D
:1020300003F002030293029B3823039302230493C9
:10204000032306930523079303A91F4800F060FFAD
:102050001E481F4B03604FF0C06343608560C5603E
:102060004FF48063036145618561C5614FF440337E
:102070000362456200F0F8FDE8B9144BE3649C6329
:102080001448154B03604FF0C063436040238360E6
:102090000023C3604FF48062026143618361C361C6
:1020A0004FF400320262436200F0DEFD30B9094BAA
:1020B000A3649C63A6E7FFF70EFFDEE7FFF70BFFC5
:1020C000F5E700BF00300140000402408C09002009
:1020D000406402402C0900205864024000B583B0DF
:1020E000002200920D4B596C41F480415964596CA7
:1020F00001F48041009100990192196C41F08051E6
:1021000019641B6C03F080530193019B0F216FF046
:10211000010000F02FFD03B05DF804FB0038024021
:1021200030B589B0044600230193224B1A6C42F06B
:1021300001021A641B6C03F001030193019B02A9C5
:1021400003A801F001FB069BD3B901F0EDFA0346A9
:10215000194AA2FB03239B0C013B18484FF0804215
:10216000026040F2E732C260436000230361836093
:10217000836101F095FE054630B1284609B030BDB7
:1021800001F0D2FA4300E3E70C4801F029FD0546CF
:102190000028F2D11C2000F0FDFC0F2C01D90125F4
:1021A000EBE7002221461C2000F0E4FC044B1C60FD
:1021B000E3E700BF0038024083DE1B43440A0020EF
:1021C000A4000020FEE7FEE7FEE7FEE7FEE770471B
:1021D00008B5024801F04CFD08BD00BF440A0020CC
:1021E00008B5024800F0A6FD08BD00BF8C0900201C
:1021F00008B5024800F09EFD08BD00BF2C09002074
:1022000010B503460C4A0D490D48006840B10C4812
:1022100000680344521A934206D8094A136010BD5D
:102220000748084C0460F2E704F07CFC0C230360D0
:102230004FF0FF30F3E700BF000002200004000071
:102240008C0A0020905A0020034AD2F8883043F4C8
:102250007003C2F88830704700ED00E008B5094807
:10226000094B03600023436083604FF6FF72C26036
:102270000361836101F014FE00B908BDFFF72BFE76
:10228000FBE700BF900A0020004401400268094BB0
:102290009A4200D0704782B000230193064B5A6CDB
:1022A00042F400325A645B6C03F400330193019BE7
:1022B00002B070470044014000380240DFF834D0DB
:1022C000FFF7C2FF0C480D490D4A002302E0D45825
:1022D000C4500433C4188C42F9D30A4A0A4C002370
:1022E00001E013600432A242FBD304F021FCFFF7AB
:1022F00047FE704700000220000000200406002076
:10230000FC7F000808060020905A0020FEE700002D
:1023100070B52DED068B86B004460D46164690ED41
:10232000040A9F4BD3ED007A70EE677AF0EEE77AFD
:102330009FED9C7AF4EEC77AF1EE10FA22DCD0ED34
:10234000057A994B93ED007A77EEC77AF0EEE77A4B
:102350009FED947AF4EEC77AF1EE10FA12DCD0ED2C
:10236000067A924B93ED007A77EEC77AF0EEE77A31
:102370009FED8C7AF4EEC77AF1EE10FA02DC037866
:10238000002B6ED09FED8AAA80EE0A0A04F0E6F8D0
:10239000B0EE409A94ED050A80EE0A0A04F0DEF8E9
:1023A000F0EE408A94ED060A80EE0A0A04F0D6F8B0
:1023B000F0EE40AA94ED040A80EE0A0A04F088F8D0
:1023C000B0EE408A94ED050A80EE0A0A04F080F827
:1023D000F0EE409A94ED060A80EE0A0A04F078F8CE
:1023E00069EE2A6A28EE297A27EE007A36EE877A95
:1023F000704B83ED007A28EE887A6F4B83ED007A7C
:1024000029EE007A2AEE886A66EE295A37EE657A56
:102410006A4B83ED007A29EE297A27EE007A37EEAF
:10242000467A674B83ED007A29EE289A654B83ED57
:10243000009A28EE408A66EEA96A38EE668A624BF8
:1024400083ED008A68EEC07A604BC3ED007A604B82
:10245000C3ED009A68EEAA8A5E4BC3ED008A0023A2
:102460002370002310E005EB8302D2ED007A04EB29
:10247000830292ED017A67EE877A06AA02EB830265
:1024800042ED037A0133DBB2022BECD9DDED037AA6
:10249000484B93ED006A27EE867A9DED045A464B31
:1024A000D3ED002A65EE226A37EE267ADDED055A75
:1024B000424B93ED003A65EE836A37EE267A85ED5E
:1024C000007A3F4BD3ED006A27EEA67A3D4BD3ED61
:1024D000003A65EE234A37EE247A3B4B93ED004AEF
:1024E00065EE844A37EE247A85ED017A374B93ED19
:1024F000007A67EE877A364BD3ED004A25EE245AF0
:1025000077EE857A334B93ED005A65EE855A77EE78
:10251000A57AC5ED027A002309E006EB8302116873
:1025200006AA02EB830242F8181C0133DBB2022B2D
:10253000F3D99DED002A26EE026ADDED015A62EE26
:10254000A52A36EE226ADDED027A23EE273A36EE30
:10255000036A86ED006A66EE826A63EEA53A76EE5D
:10256000A36A24EE274A76EE846AC6ED016A27EE56
:10257000027A64EEA54A37EE247A25EE275A37EE22
:10258000057A86ED027A2269054B1A606269064B6C
:102590001A60A269054B1A6006B0BDEC068B70BDCF
:1025A000040B00206F12833A000B0020FC0A00206D
:1025B000E12E6542F80A0020F40A0020F00A00200B
:1025C000EC0A0020E80A0020E40A0020E00A0020CB
:1025D000DC0A0020D80A002008B5114BF7EE001ADB
:1025E000C3ED011AC3ED021AC3ED031A9FED0D2AC4
:1025F00083ED042A83ED052A83ED062A01221A7051
:102600009FED091ADFED090AB2EE040AFEF70EFB90
:102610000021074801F080FC064B074A1A6408BDF8
:10262000100B0020000000008096184B6F12833AB8
:10263000900A00202C0B002096430B3C92ED026A7E
:1026400066EE067AF6EE006A76EEE77A92ED037AA7
:1026500067EE075A77EEE57AD0ED005A67EEA57A75
:10266000D2ED014A66EE245A92ED005A27EE054A51
:1026700075EEC45A90ED014A65EE845A77EEA57A5C
:1026800027EE247A26EE056A37EE067A90ED026A86
:1026900027EE067A77EE877A77EEA77AC1ED007A91
:1026A000D2ED015A92ED027A65EE877AD2ED004AB8
:1026B00092ED035A24EE856A77EE867A90ED006AF1
:1026C00067EE867A25EEA56A36EEC66A25EE054ADD
:1026D00036EE446A90ED014A26EE046A77EE867A79
:1026E00027EE057A65EEA45A37EE657A90ED026A18
:1026F00027EE067A77EE877A77EEA77AC1ED017A30
:10270000D2ED015A92ED037A65EE877A92ED005A86
:1027100092ED026A65EE064A77EEE47AD0ED004A61
:1027200067EEA47A27EE067A25EE855A37EE057A0B
:1027300090ED015A27EE057A77EE877A65EEA55A75
:1027400076EEE56A26EE066A76EEC66A90ED027AC5
:1027500066EE876A77EEA67A77EEA77AC1ED027AFF
:10276000704792ED026A66EE067AF6EE006A76EE41
:10277000E77A92ED037A67EE075A77EEE57AD0EDC5
:10278000005A67EEA57AD2ED014A66EE245A92ED20
:10279000005A27EE054A75EE845A90ED014A65EE1F
:1027A000845A77EEA57A27EE247A26EE056A37EE6C
:1027B000467A90ED026A27EE067A77EE877A77EE10
:1027C000A77AC1ED007AD2ED015A92ED027A65EE58
:1027D000877AD2ED004A92ED035A24EE856A77EEAD
:1027E000C67A90ED006A67EE867A25EEA56A36EE27
:1027F000C66A25EE054A36EE446A90ED014A26EE99
:10280000046A77EE867A27EE057A65EEA45A37EEEB
:10281000257A90ED026A27EE067A77EE877A77EED0
:10282000A77AC1ED017AD2ED015A92ED037A65EEF5
:10283000877A92ED005A92ED026A65EE064A77EECB
:10284000A47AD0ED004A67EEA47A27EE067A25EE48
:10285000855A37EE457A90ED015A27EE057A77EEE4
:10286000877A65EEA55A76EEE56A26EE066A76EE7A
:10287000C66A90ED027A66EE876A77EEA67A77EE00
:10288000A77AC1ED027A704730B52DED068B87B07F
:102890009FED5D8A8DED038A8DED048A5B4B059378
:1028A0005B4BD3ED007A77EE887AC3ED007A594D11
:1028B0002846FEF7ADFC2B68574CE3616B6823623A
:1028C000AB686362EB6823612B6963616B69A36129
:1028D00004F11C0204F110015048FFF719FD94EDBA
:1028E000079AD4ED098AF0EE680AB0EE490A04F0BE
:1028F00031FBDFED4BAA20EE6A0A9FED4AAAC0EE3B
:102900000A7AC4ED1A7AD4ED089AF0EE680AB0EEAD
:10291000690A04F01FFB20EE2A0AC0EE0A7AC4ED11
:102920001B7AB0EE483AF0EE682AB0EE692AF0EE73
:10293000491A94ED061AD4ED050A94ED040AFEF73F
:10294000E5F9394B0FCB84E80F00224604F144012E
:102950003648FFF773FE224604F150013448FFF772
:102960006DFE224604F15C013248FFF767FE224605
:10297000694603A8FFF7F5FE002326E0264A991DC5
:1029800002EB810191ED017A06A901EB830151ED82
:10299000067A37EE677ADFED1C7A27EE277AD2EDDA
:1029A000106A76EEA77A87EE276A03F10A0102EB36
:1029B000810292ED007A66EE876A86EEA77A76EE5D
:1029C000077AC2ED007A0133DBB2022BD6D9124C62
:1029D000224604F1340104F12800FFF72FFE164BC4
:1029E000D3F8A821A267D3F8A4216267D3F8A02165
:1029F0002267D3F8AC31E367104A136801331360E0
:102A000007B0BDEC068B30BD00000000C3F51C41D3
:102A10000C0B0020E80800202C0B0020100B0020DD
:102A200000003443DB0F4940480800209477000839
:102A3000887700087C770008F8060020080B002043
:102A400008B54FF40061044800F05EFB4FF4FA70E3
:102A500001F07BFBF5E700BF001C024008B54FF416
:102A60008051034800F050FBFA2001F06EFBF6E7BE
:102A7000001C024008B50B4B1A6842F400721A6041
:102A80001A6842F480621A601A6842F480721A600E
:102A9000032000F05DF80F20FFF742FBFFF71EFB5D
:102AA000002008BD003C0240034A1168034B1B781C
:102AB0000B441360704700BFAC0B0020A000002047
:102AC000014B1868704700BFAC0B0020002807DBE3
:102AD00000F01F02400901239340024A42F82030CF
:102AE000704700BF00E100E0002808DB0901C9B21F
:102AF00000F1604000F5614080F80013704700F07D
:102B00000F000901C9B2014B1954704714ED00E0E0
:102B100000B500F00700C0F1070CBCF1040F28BF9E
:102B20004FF0040C031D062B0FD9C31E4FF0FF3EC0
:102B30000EFA0CF021EA000199400EFA03FE22EA97
:102B40000E0241EA02005DF804FB0023EEE70000FC
:102B5000074AD36823F4E0631B041B0C000200F453
:102B6000E060034343F0BF6343F40033D360704736
:102B700000ED00E010B50446054BD868C0F3022014
:102B8000FFF7C6FF01462046FFF7AEFF10BD00BFAE
:102B900000ED00E008B5FFF799FF08BD10B4036829
:102BA000D9B210390A4AA2FB01421209094CA25CAF
:102BB000C2655F2907D96FF3090304338365806D0C
:102BC0005DF8044B70476FF309038365F7E700BFB7
:102BD000ABAAAAAAA0770008836A826992B9012BDE
:102BE0000AD0022B02D00BB100207047C36A13F049
:102BF000807F28D100207047C36AB3F1C07F24D002
:102C000000207047B2F5005F09D0022B25D9032BB5
:102C100025D1C36A13F0807F23D100207047032B96
:102C200003D8DFE803F01404140A00207047C36AD5
:102C300013F0807F0DD100207047C36AB3F1C07FCD
:102C400009D0002070470120704701207047012003
:102C50007047012070470120704701207047002015
:102C6000704701207047000070B50446FFF728FF49
:102C7000002C5BD00546022384F83530002384F80D
:102C800034302268136823F00103136023681A6844
:102C900012F0010F0AD0FFF713FF431B052BF5D9E4
:102CA00020236365032084F8350070BD1A6820492D
:102CB00011406268A0680243E06802432069024351
:102CC00060690243A0690243E0690243206A02434B
:102CD0000A43616A04291ED01A602668756925F0C6
:102CE0000705636A1D43042B07D1A36A1D43E36AEA
:102CF0001BB12046FFF770FF90B975612046FFF7C2
:102D00004DFFE26D3F239340836000206065012307
:102D100084F83530C9E7E16A206B01430A43DBE7F9
:102D200040236365012084F83500BEE70120BCE73D
:102D30003F8010F0F0B583B0044600230193724B3E
:102D40001D68724BA3FB0535AD0A876D3E68C26DE9
:102D500008239340334210D003681A6812F0040F1E
:102D60000BD01A6822F004021A60C26D0823934047
:102D7000BB60436D43F001034365E26D0123934063
:102D8000334209D02268526912F0800F04D0BB6030
:102D9000636D43F002036365E26D042393403342A5
:102DA00009D02268126812F0020F04D0BB60636D74
:102DB00043F004036365E26D10239340334224D053
:102DC0002268126812F0080F1FD0BB6023681A68CF
:102DD00012F4802F0DD01B6813F4002F04D1236C44
:102DE0009BB12046984710E0A36C73B120469847EA
:102DF0000BE01A6812F4807F03D11A6822F00802EF
:102E00001A60236C0BB120469847E26D2023934053
:102E1000334255D02268126812F0100F50D0BB60B8
:102E200094F83530DBB2052B0ED023681A6812F403
:102E3000802F33D01B6813F4002F2AD1636C002B32
:102E40003ED0204698473BE02268136823F01603E3
:102E500013602268536923F080035361236CA3B18C
:102E60002268136823F008031360E26D3F23934048
:102E7000BB60012384F83530002384F83430236D9F
:102E8000002B3FD0204698473CE0A36C002BE7D1B5
:102E9000EBE7E36BA3B12046984711E01A6812F400
:102EA000807F09D11A6822F010021A60012384F889
:102EB0003530002384F83430E36B0BB1204698475B
:102EC000636DFBB1636D13F0010F17D0052384F818
:102ED00035302268136823F001031360019B01332E
:102EE0000193AB4204D823681B6813F0010FF5D19E
:102EF000012384F83530002384F83430E36C0BB1BF
:102F00002046984703B0F0BD9C000020B5814E1BC1
:102F100000230F2B00F2E98070B582B065E0856870
:102F20004FEA430E032404FA0EF425EA0405CC68A4
:102F300004FA0EF42C438460446824EA02044A68CC
:102F4000C2F300129A40224342605CE0DC0808347D
:102F500050F8242003F00705AD004FF00F0E0EFAD5
:102F600005FE22EA0E0E0A69AA4042EA0E0240F865
:102F700024205CE0072200E0002202FA0EF22A433D
:102F800002345A4D45F82420594A94686FEA0C02DD
:102F900024EA0C054E6816F4801F01D04CEA0405A3
:102FA000534CA560E46802EA04054E6816F4001F5D
:102FB00001D04CEA04054E4CE560646802EA040561
:102FC0004E6816F4003F01D04CEA0405484C656099
:102FD000246822404D6815F4803F01D04CEA040279
:102FE000434C226001330F2B7DD801229A400C689C
:102FF00004EA020C32EA0404F4D14C6804F003043D
:10300000013C012C8BD94A6802F00302032A09D043
:10301000C4685D000322AA4024EA02048A68AA4028
:103020002243C2604A6802F00302022A8ED004687A
:103030004FEA430E032202FA0EF224EA02044A681F
:1030400002F0030202FA0EF2224302604A6812F40E
:10305000403FC7D000220192264A546C44F4804479
:103060005464526C02F480420192019A9C08A51C9F
:103070001E4A52F8255003F0030E4FEA8E0E0F221F
:1030800002FA0EF225EA02051B4A90423FF474AFA1
:1030900002F5806290421AD002F58062904218D008
:1030A00002F58062904216D002F58062904214D000
:1030B00002F58062904212D002F58062904210D0F8
:1030C00002F5806290423FF455AF082255E7012295
:1030D00053E7022251E703224FE704224DE705227E
:1030E0004BE7062249E702B070BD70470038014047
:1030F000003C014000380240000002400AB18161FA
:103100007047090481617047436901EA030221EABB
:10311000030141EA0241816170470000002800F08C
:10312000E08170B582B00446036813F0010F3BD014
:103130009F4B9B6803F00C03042B2CD09C4B9B688B
:1031400003F00C03082B21D06368B3F5803F4FD008
:10315000B3F5A02F52D0964B1A6822F480321A6031
:103160001A6822F480221A606368002B50D0FFF79F
:10317000A7FC05468E4B1B6813F4003F14D1FFF7E4
:103180009FFC401B6428F5D90320B1E1884B5B68A4
:1031900013F4800FD8D0864B1B6813F4003F03D084
:1031A0006368002B00F09F81236813F0020F54D056
:1031B0007F4B9B6813F00C0F3ED07D4B9B6803F058
:1031C0000C03082B33D0E368002B68D0794B012225
:1031D0001A60FFF775FC0546754B1B6813F0020F6C
:1031E00054D1FFF76DFC401B0228F5D903207FE185
:1031F0006F4A136843F480331360B5E76C4B1A6869
:1032000042F480221A601A6842F480321A60ABE7F6
:10321000FFF756FC0546664B1B6813F4003FC3D00E
:10322000FFF74EFC401B6428F5D9032060E1604B9A
:103230005B6813F4800FC6D15D4B1B6813F0020F5F
:1032400003D0E368012B40F05081594A136823F002
:10325000F803216943EAC1031360236813F0080FE0
:1032600042D063696BB3534B0122C3F8802EFFF742
:1032700027FC05464E4B5B6F13F0020F34D1FFF76E
:103280001FFC401B0228F5D9032031E1484A13688E
:1032900023F0F803216943EAC1031360DDE7454BDE
:1032A00000221A60FFF70CFC0546414B1B6813F027
:1032B000020FD2D0FFF704FC401B0228F5D90320EF
:1032C00016E13C4B0022C3F8802EFFF7F9FB0546C0
:1032D000374B5B6F13F0020F06D0FFF7F1FB401B7B
:1032E0000228F5D9032003E1236813F0040F77D0F7
:1032F0002F4B1B6C13F0805F33D1002301932C4BB9
:103300001A6C42F080521A641B6C03F080530193D4
:10331000019B0125284B1B6813F4807F23D0A368F1
:10332000012B34D0052B38D0214B1A6F22F001022B
:103330001A671A6F22F004021A67A368002B3DD0A7
:10334000FFF7BEFB06461A4B1B6F13F0020F46D168
:10335000FFF7B6FB801B41F288339842F3D9032074
:10336000C6E00025D6E7144A136843F4807313605F
:10337000FFF7A6FB0646104B1B6813F4807FCED1E7
:10338000FFF79EFB801B0228F5D90320B0E0084A16
:10339000136F43F001031367CFE7054B1A6F42F039
:1033A00004021A671A6F42F001021A67C5E700BFEC
:1033B000003802400000474200700040FFF780FBE9
:1033C0000646524B1B6F13F0020F08D0FFF778FB35
:1033D000801B41F288339842F3D9032088E0EDB98D
:1033E000A369002B00F08380484A926802F00C0227
:1033F000082A51D0022B17D0454B00221A66FFF73E
:103400005FFB0446414B1B6813F0007F42D0FFF77F
:1034100057FB001B0228F5D9032069E03B4A136CD7
:1034200023F080531364DBE7394B00221A66FFF761
:1034300047FB0546354B1B6813F0007F06D0FFF7AE
:103440003FFB401B0228F5D9032051E0E369226AC3
:103450001343626A43EA8213A26A5208013A43EABA
:103460000243E26A43EA0263284A5360284B01227E
:103470001A66FFF725FB0446244B1B6813F0007FF8
:1034800006D1FFF71DFB001B0228F5D903202FE012
:1034900000202DE000202BE0012B2BD01B4B5B6884
:1034A00003F48001E269914226D103F03F02216AD0
:1034B0008A4223D1616A47F6C0721A40B2EB811F7B
:1034C0001ED103F44031A26A5208013AB1EB024F17
:1034D00018D103F07063E26AB3EB026F14D10020DD
:1034E00006E001207047012002E0012000E00020FA
:1034F00002B070BD0120FBE70120F9E70120F7E7EA
:103500000120F5E70120F3E70120F1E70038024050
:103510000000474208B5264B9B6803F00C03042BC0
:1035200041D0082B41D1224B5A6802F03F025B6820
:1035300013F4800F12D01E4B5968C1F388111D4837
:103540000023A1FB0001FCF743FE194B5B68C3F3AA
:10355000014301335B00B0FBF3F008BD144B586826
:10356000C0F388104FEA401CBCEB000C6EEB0E0E53
:103570004FEA8E1343EA9C634FEA8C11B1EB0C01C6
:1035800063EB0E03DB0043EA5173C90011EB000C3F
:1035900043F10003990200234FEA8C2041EA9C5139
:1035A000FCF716FED1E70348D7E70348D5E700BF8D
:1035B0000038024040787D010024F400002800F02B
:1035C0009B8070B50D4604464F4B1B6803F0070304
:1035D0008B4208D2CBB24C4A1370136803F0070336
:1035E0008B4240F08B80236813F0020F17D013F04A
:1035F000040F04D0454A936843F4E0539360236872
:1036000013F0080F04D0414A936843F46043936079
:103610003E4A936823F0F003A1680B43936023684C
:1036200013F0010F32D06368012B21D09A1E012ABA
:1036300025D9364A126812F0020F61D033498A68E0
:1036400022F0030213438B60FFF73AFA06462F4B32
:103650009B6803F00C036268B3EB820F16D0FFF790
:103660002FFA801B41F288339842F0D9032042E0C0
:10367000264A126812F4003FE0D101203BE0234AC1
:10368000126812F0007FD9D1012034E01E4B1B6874
:1036900003F00703AB4207D9EAB21B4B1A701B6851
:1036A00003F00703AB422DD1236813F0040F06D0BB
:1036B000164A936823F4E053E1680B439360236850
:1036C00013F0080F07D0114A936823F4604321696F
:1036D00043EAC1039360FFF71DFF0C4B9B68C3F3E4
:1036E00003130B4AD35CD8400A4B18600A4B186886
:1036F000FEF716FD002070BD012070470120FAE79B
:103700000120F8E70120F6E7003C024000380240C3
:103710006C7700089C000020A4000020014B186872
:10372000704700BF9C00002008B5FFF7F7FF044B6F
:103730009B68C3F38223034AD35CD84008BD00BF13
:1037400000380240647700080F2303600B4B9A682F
:1037500002F0030242609A6802F0F00282609A6806
:1037600002F4E052C2609B68DB0803F4E05303619B
:10377000034B1B6803F007030B60704700380240DF
:10378000003C02402DE9F04782B0054688461746C6
:103790001E46FFF795F90A9B1B1A03EB0609FFF774
:1037A0008FF98246284B1B68C3F3CB3309FB03F325
:1037B00001932B689C6838EA04040CBF01230023A2
:1037C000BB423DD0B6F1FF3FF3D0FFF779F9A0EB54
:1037D0000A00484503D2019B73BB9946E9E72A6872
:1037E000536823F0E00353606B68B3F5827F0BD01E
:1037F000AB6AB3F5005F14D0012385F85130002384
:1038000085F8503003201CE0AB68B3F5004F02D0C0
:10381000B3F5806FECD12A68136823F0400313607E
:10382000E6E72A68136823F4005313602A681368D4
:1038300043F400531360DFE7019B013B0193B8E7BA
:10384000002002B0BDE8F0879C00002070B584B075
:1038500004460D46164600920B4601220221FFF750
:1038600091FFD0B9174B1B68174AA2FB03235B0DCE
:103870004FF47A7202FB03F303936368B3F5827F1C
:1038800011D0039B3BB1039B013B039323689B68CF
:1038900013F0800FF5D104B070BD636D43F02003C9
:1038A00063650320F7E700962B460022802120461F
:1038B000FFF768FF0028EED0636D43F020036365D7
:1038C0000320E8E79C000020819F5E1600285AD064
:1038D00010B50446436A33B94368B3F5827F05D017
:1038E0000023C36102E00023036143610023A3625C
:1038F00094F85130002B40D0022384F851302268D4
:10390000136823F040031360636803F48273A268B2
:1039100002F404421343E26802F400621343226992
:1039200002F002021343626902F001021343A2692A
:1039300002F400721343E26902F038021343226A70
:1039400002F080021343A26A02F40052216813437A
:103950000B60638B03F00403626A02F010022168BB
:1039600013434B602268D36923F40063D3610020C2
:103970006065012384F8513010BD84F85030204632
:10398000FEF734FBB8E7012070472DE9F04383B020
:103990000446884691461F460A9DFFF791F8064661
:1039A00094F85130DBB26268012B0AD0B2F5827F05
:1039B00040F00581A268002A40F00581042B40F008
:1039C0000481B8F1000F00F00281B9F1000F00F09E
:1039D0000081002F00F0FF8094F85030012B00F0A0
:1039E000FC80012384F8503094F85130DBB2042B72
:1039F00002D0052384F8513000236365C4F8389061
:103A0000E787A787C4F83080E786A78623646364C6
:103A100023681A6812F0400F03D11A6842F040027E
:103A20001A60E368B3F5006F11D063680BB1012F22
:103A30000BD1226B236812781A73236B0133236333
:103A4000E38E9BB2013B9BB2E386012771E0636882
:103A50000BB1012F0BD1226B23681288DA60236B24
:103A600002332363E38E9BB2013B9BB2E3860127C3
:103A70001BE023689A6812F0010F0ED0E28F92B219
:103A80005AB1DA68A36B1A80A36B0233A363E38F86
:103A90009BB2013B9BB2E3870127FFF711F8801B24
:103AA000A84202D3B5F1FF3F1ED1E38E9BB21BB9F2
:103AB000E38F9BB2002B62D023689A6812F0020F4A
:103AC000D7D0E28E92B2002AD3D0002FD1D0226B71
:103AD0001288DA60236B02332363E38E9BB2013BCF
:103AE0009BB2E3860027C4E7012384F8513000230A
:103AF00084F85030032063E023689A6812F0010FC5
:103B00000ED0E28F92B25AB1DA68A36B1A70A36B2F
:103B10000133A363E38F9BB2013B9BB2E387012791
:103B2000FEF7CEFF831BAB4202D3B5F1FF3F1ED1A0
:103B3000EDB1E38E9BB213B9E38F9BB2FBB1236867
:103B40009A6812F0020FD7D0E28E92B2002AD3D038
:103B5000002FD1D0226B12781A73236B01332363A9
:103B6000E38E9BB2013B9BB2E3860027C4E70123AF
:103B700084F85130002384F85030032020E032468E
:103B800029462046FFF762FE90B9A36833B9019336
:103B90002368DA6801929B680193019B012384F8F2
:103BA0005130002384F85030636D4BB1012007E0A1
:103BB00020236365002384F85030012000E00220B8
:103BC00003B0BDE8F0830220FAE70220F8E7012005
:103BD000F6E70120F4E70120F2E70220F0E7000019
:103BE00090F83D30DBB2012B37D1022380F83D3015
:103BF0000268D36843F00103D3600368194A934213
:103C000020D0B3F1804F1DD0A2F57C42934219D051
:103C100002F58062934215D002F58062934211D082
:103C200002F5784293420DD002F57052934209D0CA
:103C3000A2F59432934205D01A6842F001021A604C
:103C4000002070479A6802F00702062A07D01A6817
:103C500042F001021A6000207047012070470020E6
:103C6000704700BF000001407047704770477047C1
:103C700070B504460368DE681D6915F0020F10D0A8
:103C800016F0020F0DD06FF002021A6101230377C4
:103C900003689B6913F0030F5ED0FFF7E6FF002374
:103CA000237715F0040F12D016F0040F0FD02368FD
:103CB0006FF004021A610223237723689B6913F4CF
:103CC000407F4FD02046FFF7D0FF0023237715F029
:103CD000080F12D016F0080F0FD023686FF00802FB
:103CE0001A61042323772368DB6913F0030F40D0A4
:103CF0002046FFF7BAFF0023237715F0100F12D0EC
:103D000016F0100F0FD023686FF010021A6108230D
:103D100023772368DB6913F4407F31D02046FFF717
:103D2000A4FF0023237715F0010F02D016F0010F36
:103D30002DD115F0800F02D016F0800F2FD115F085
:103D4000400F02D016F0400F31D115F0200F02D0F5
:103D500016F0200F33D170BDFFF786FF2046FFF726
:103D600085FF9CE72046FFF77FFF2046FFF77EFF99
:103D7000ABE72046FFF778FF2046FFF777FFBAE76B
:103D80002046FFF771FF2046FFF770FFC9E7236861
:103D90006FF001021A612046FEF794F8C9E7236824
:103DA0006FF080021A61204600F039F9C7E72368F6
:103DB0006FF040021A612046FFF759FFC5E72368FC
:103DC0006FF020021A61204600F028F9C3E70000D6
:103DD0000368324A904212D0B0F1804F0FD0A2F562
:103DE0007C4290420BD002F58062904207D002F5EF
:103DF0008062904203D002F57842904203D123F0D2
:103E000070034A681343254A90422AD0B0F1804F8C
:103E100027D0A2F57C42904223D002F580629042E6
:103E20001FD002F5806290421BD002F5784290428A
:103E300017D002F57052904213D002F58062904282
:103E40000FD002F5806290420BD0A2F598329042DA
:103E500007D002F58062904203D002F58062904262
:103E600003D123F44073CA68134323F080034A69E3
:103E700013438A68C2620A688262084A904203D089
:103E800002F58062904201D10A690263026842F041
:103E90000402026001224261036070470000014099
:103EA00040B310B5044690F83D30F3B1022384F8D6
:103EB0003D30214651F8040BFFF78AFF012384F8B7
:103EC000463084F83E3084F83F3084F8403084F83F
:103ED000413084F8423084F8433084F8443084F828
:103EE000453084F83D30002010BD80F83C30FEF7AE
:103EF000CDF9DBE70120704701F01F014FF0010C05
:103F00000CFA01FC036A23EA0C030362036A8A4089
:103F1000134303627047000010B5044608460029A9
:103F200042D194F83E30DBB2013B18BF0123002B95
:103F30006ED1002851D1022384F83E30012201467F
:103F40002068FFF7D9FF2368334A934203D002F574
:103F50008062934203D15A6C42F400425A6423684F
:103F60002D4A934249D0B3F1804F46D0A2F57C420E
:103F7000934242D002F5806293423ED002F58062C5
:103F800093423AD002F57842934236D002F570520D
:103F9000934232D0A2F5943293422ED01A6842F066
:103FA00001021A60002032E0042908D008290DD04F
:103FB00094F84130DBB2013B18BF0123B7E794F816
:103FC0003F30DBB2013B18BF0123B0E794F840302B
:103FD000DBB2013B18BF0123A9E7042805D008285C
:103FE00007D0022384F84130A8E7022384F83F3049
:103FF000A4E7022384F84030A0E79A6802F00702A1
:10400000062A07D01A6842F001021A60002010BD8B
:104010000120FCE70020FAE70000014070477047EC
:1040200008B54FF0E0231B6901F00EFC012800D118
:1040300008BD00F0CFF9FBE7EFF305832BB9064B82
:10404000186828B901221A6070476FF005007047A0
:104050004FF0FF30704700BFF0140020EFF30583EE
:1040600073B90A4B1B68012B0DD110B50024084B06
:10407000DC77064B02221A6001F034F9204610BDAD
:104080006FF0050070474FF0FF307047F0140020CC
:1040900000ED00E0F0B587B000240594EFF305844F
:1040A0000CBB00B3002A35D0156893692BB11E46AE
:1040B000013B372B02D9002016E01826536813F075
:1040C000010F40D154698CB14FEA940C936833B11D
:1040D000D768B7F5D07F02D3176907B184B943B168
:1040E0004FF0FF330BB3059807B0F0BD4FF0800CD5
:1040F000ECE7D368A3B91369ABB14FF0FF33F1E735
:104100000293019700960B466246294601F07AF821
:104110000590E8E71546002318264FF0800CE1E7EC
:104120004FF0FF33DEE70023DCE705AB0193009699
:104130000B461FFA8CF2294601F0A1F80128D2D0D3
:1041400000230593CFE70020CEE708B5EFF3058302
:1041500033B908B9002008BD01F030FA0020FAE7B1
:104160006FF00500F7E70000034B0360034B0B60A3
:1041700080231360704700BF5013002050110020AF
:10418000034B0360034B0B604FF480731360704765
:10419000B00F0020B00B002000F1080343604FF087
:1041A000FF328260C3600361002303607047002315
:1041B0000361704743684B609A688A6051609960F8
:1041C0000861036801330360704730B40D68B5F1CE
:1041D000FF3F11D000F108031C465B681A68AA4231
:1041E000FAD963684B6099608C606160086103680C
:1041F0000133036030BC70470469F2E7036941682A
:1042000082688A60416851605A68824206D0002202
:1042100002611A68013A1A601868704782685A6029
:10422000F5E7000082B0002301930D4B1B68B3F14A
:10423000FF3F08D04FF0500383F31188BFF36F8F17
:10424000BFF34F8FFEE74FF0500383F31188BFF3A6
:104250006F8FBFF34F8F019B002BFCD002B07047D4
:10426000A800002008480068006880F308884FF024
:10427000000080F3148862B661B6BFF34F8FBFF3BE
:104280006F8F00DF00BF000008ED00E0DFF80C00DA
:10429000016841F4700101607047000088ED00E0A2
:1042A0004FF0807340F8043C21F0010140F8081CF5
:1042B000054B40F80C3C40F8202C6FF0020340F80E
:1042C000243C4438704700BF25420008000000002D
:1042D000074B19680868B0E8F04F80F30988BFF30E
:1042E0006F8F4FF0000080F311887047AFF30080AC
:1042F000585600204FF0500383F31188BFF36F8F9F
:10430000BFF34F8F0B4A136801331360012B00D0AA
:1043100070474FF0E023D3F8043D13F0FF0FF7D0C0
:104320004FF0500383F31188BFF36F8FBFF34F8FAC
:10433000FEE700BFA8000020094B1B6843B94FF0FF
:10434000500383F31188BFF36F8FBFF34F8FFEE7E6
:10435000013B034A13600BB983F31188704700BF18
:10436000A800002000000000000000000000000085
:10437000EFF30980BFF36F8F154B1A681EF0100F13
:1043800008BF20ED108A20E9F04F10602DE90900E8
:104390004FF0500080F31188BFF34F8FBFF36F8F42
:1043A00001F032F94FF0000080F3118809BC196860
:1043B0000868B0E8F04F1EF0100F08BFB0EC108A8C
:1043C00080F30988BFF36F8F704700BFAFF30080A1
:1043D0005856002008B54FF0500383F31188BFF3FF
:1043E0006F8FBFF34F8F00F0E1FF28B14FF0E02354
:1043F0004FF08052C3F8042D002383F3118808BDC9
:104400004FF0E022002313619361054B1B680549BF
:10441000A1FB03139B09013B536107231361704701
:104420009C000020D34D62104FF0E023D3F8002D04
:104430003D4B9A421CD04FF0E023D3F8002D3B4B6C
:104440009A421ED030B583B0394B1A78D2B201925D
:10445000FF221A701B78DBB28DF803309DF8033011
:1044600003F05003334A1370334B07221A601BE0EA
:104470004FF0500383F31188BFF36F8FBFF34F8F5B
:10448000FEE74FF0500383F31188BFF36F8FBFF344
:104490004F8FFEE7284A1368013B13609DF80330F5
:1044A0005B00DBB28DF803309DF8033013F0800F12
:1044B000F0D1214B1B68032B08D04FF0500383F33E
:1044C0001188BFF36F8FBFF34F8FFEE71B021A4AAD
:1044D000136003F4E0631360019BDBB2144A1370B2
:1044E0004FF0E024D4F8203D43F47003C4F8203D9D
:1044F000D4F8203D43F07043C4F8203DFFF780FF1F
:1045000000250E4B1D60FFF7C1FED4F8343F43F089
:104510004043C4F8343FFFF7A5FE01F075F8FFF7FC
:1045200081FE284603B030BD71C20F4170C20F41F9
:1045300000E400E0F8140020F4140020A80000209B
:10454000EFF305830F2B0FD9114A9B5CDBB2114AA5
:1045500012789A4208D94FF0500383F31188BFF3C1
:104560006F8FBFF34F8FFEE74FF0E023D3F80C3D82
:1045700003F4E063084A1268934208D94FF05003ED
:1045800083F31188BFF36F8FBFF34F8FFEE7704740
:10459000F0E300E0F8140020F4140020124A12F0B6
:1045A000070F1ED0D11D21F00701C1F57053134430
:1045B0000A460E480260002141601344083B23F084
:1045C00007030B48036059601960991A5160136022
:1045D000084B1960084B1960084B4FF000421A60F5
:1045E00070474FF47053E4E71C15002014150020A9
:1045F00010150020081500200C150020FC140020C8
:10460000164B1A461B688342FBD3516802EB010C20
:10461000844509D0416800EB010C634509D0036073
:10462000904219D0106070474068014451601046B4
:10463000F0E710B40A4C2468A3420BD05B6819441D
:10464000416013681B680360904200D010605DF801
:10465000044B70470460F7E7704700BF1415002053
:104660001015002038B5044600F092FE384B1B6848
:10467000B3B1384B1B681C4250D1002C50D004F110
:10468000080214F0070F02D022F007020832002AB5
:1046900055D0314B1B68934253D330490C6804E02A
:1046A000FFF77CFFE5E721461C466368934202D290
:1046B0002368002BF7D1264B1B68A34243D00D681B
:1046C000083523680B6063689B1A102B10D9A0185B
:1046D00010F0070F08D04FF0500383F31188BFF399
:1046E0006F8FBFF34F8FFEE743606260FFF788FF75
:1046F000626819490B689B1A0B60194909688B425B
:1047000001D217490B60134B1B68134363600023EE
:104710002360144A13680133136002E0002500E0AF
:10472000002500F0CFFE15F0070F0ED04FF050031C
:1047300083F31188BFF36F8FBFF34F8FFEE7002520
:10474000EFE70025EDE70025EBE7284638BD00BF81
:1047500010150020FC1400200C150020141500205A
:104760000815002004150020002834D038B5044670
:10477000A0F1080550F8043C174A1268134208D10A
:104780004FF0500383F31188BFF36F8FBFF34F8F48
:10479000FEE750F8081C41B14FF0500383F3118835
:1047A000BFF36F8FBFF34F8FFEE723EA020340F89A
:1047B000043C00F0EDFD54F8041C084A13680B4457
:1047C00013602846FFF71CFF054A13680133136086
:1047D00000F078FE38BD7047FC1400200C15002056
:1047E0000015002010B50446FFF784FDA26BE36BB3
:1047F0009A4204D00024FFF79FFD204610BD0124FB
:10480000F9E710B50446FFF775FDA36B23B9012442
:10481000FFF792FD204610BD0024F9E770B504466D
:104820001546866B026C5AB903681BB1002001362D
:10483000A66370BD806801F017F80023A360F6E757
:104840006DB9406802F0A6F96368226C1344636096
:10485000A268934219D3236863602846E7E7C068DB
:1048600002F098F9E368226C51429B1AE3602268D7
:10487000934202D2A3680B44E360022D01D00020D2
:10488000D5E726B1013E0020D1E72846CFE700203A
:10489000CDE70346026C6AB110B50846D9681144E9
:1048A000D9609C68A14201D31968D960D96802F027
:1048B00071F910BD704738B50546FFF71BFD95F837
:1048C000454064B201E0013C64B2002C0ADD6B6A31
:1048D00043B105F1240000F01DFF0028F3D000F0E3
:1048E000ADFFF0E7FF2385F84530FFF725FDFFF723
:1048F00001FD95F8444064B201E0013C64B2002C33
:104900000ADD2B6943B105F1100000F003FF002818
:10491000F3D000F093FFF0E7FF2385F84430FFF772
:104920000BFD38BD38B5E0B10D460446FFF7E2FC9B
:104930002368E26B216C01FB0230A0600020A063C1
:104940006360013A02FB0133E360FF2384F84430E3
:1049500084F84530FDB9236963B9FFF7EDFC012008
:1049600038BD4FF0500383F31188BFF36F8FBFF34F
:104970004F8FFEE704F1100000F0CCFE0028ECD0D1
:104980004FF0E0234FF08052C3F8042DBFF34F8F58
:10499000BFF36F8FE1E704F11000FFF7FDFB04F1B7
:1049A0002400FFF7F9FBD8E738B51D46049C0B46F9
:1049B00049B92460E063236401212046FFF7B2FF78
:1049C00084F84C5038BD2260F4E740B94FF05003F2
:1049D00083F31188BFF36F8FBFF34F8FFEE710B5DE
:1049E00084B01C46844653B192B189B94FF050034C
:1049F00083F31188BFF36F8FBFF34F8FFEE74FF044
:104A0000500383F31188BFF36F8FBFF34F8FFEE71F
:104A10006AB150230393039B502B13D04FF05003E4
:104A200083F31188BFF36F8FBFF34F8FFEE7002929
:104A3000EFD04FF0500383F31188BFF36F8FBFF3B4
:104A40004F8FFEE7039B012384F8463000949DF8C6
:104A500018306046FFF7A8FF204604B010BDF0B53F
:104A600085B0019288B10F461D460446B1B1022DB2
:104A700020D1E36B012B1DD04FF0500383F311883D
:104A8000BFF36F8FBFF34F8FFEE74FF0500383F3F9
:104A90001188BFF36F8FBFF34F8FFEE7036C002BBE
:104AA000E5D04FF0500383F31188BFF36F8FBFF34E
:104AB0004F8FFEE700F0C8FE064658B9019B002B59
:104AC00048D04FF0500383F31188BFF36F8FBFF3CB
:104AD0004F8FFEE700263DE02A4639462046FFF785
:104AE0009DFE636A7BB948B14FF0E0234FF08052DE
:104AF000C3F8042DBFF34F8FBFF36F8FFFF71CFC7C
:104B0000012005B0F0BD04F1240000F003FE0028F0
:104B1000F4D04FF0E0234FF08052C3F8042DBFF3E0
:104B20004F8FBFF36F8FE9E7FFF706FC0020E8E740
:104B300002A800F035FE012619E0002384F8443075
:104B400021E0002384F8453023E02046FFF7B3FE40
:104B500000F0B8FCFFF7CEFBA26BE36B9A42BBD32D
:104B6000022DB9D0019B002BDED0002EE0D0FFF744
:104B7000E3FB00F00DFCFFF7BDFB94F8442052B2BC
:104B8000B2F1FF3FD9D094F8452052B2B2F1FF3FC5
:104B9000D7D0FFF7D1FB01A902A800F00DFED8B9CC
:104BA0002046FFF71FFE0028CFD0019904F1100026
:104BB00000F07CFD2046FFF77EFE00F083FC00281D
:104BC000C8D14FF0E0234FF08052C3F8042DBFF35B
:104BD0004F8FBFF36F8FBDE72046FFF76CFE00F0ED
:104BE00071FC00208DE72DE9F84390B10F46164681
:104BF0001C460546B1B1022C20D1EB6B012B1DD018
:104C00004FF0500383F31188BFF36F8FBFF34F8FC3
:104C1000FEE74FF0500383F31188BFF36F8FBFF3AC
:104C20004F8FFEE7036C002BE5D04FF0500383F36A
:104C30001188BFF36F8FBFF34F8FFEE7FFF780FC44
:104C4000EFF311884FF0500383F31188BFF36F8F98
:104C5000BFF34F8FAA6BEB6B9A4206D3022C04D0A2
:104C6000002088F31188BDE8F88395F845904FFA45
:104C700089F9AB6B224639462846FFF7CFFDB9F1DB
:104C8000FF3F06D009F101035BB285F845300120F2
:104C9000E7E76B6A0BB90120E3E705F1240000F0B8
:104CA00039FD18B126B101203060DAE70120D8E7DC
:104CB0000120D6E7F0B585B0019290B10F460446C9
:104CC000C1B100F0C1FD064600BB019B002B5ED0C8
:104CD0004FF0500383F31188BFF36F8FBFF34F8FF3
:104CE000FEE74FF0500383F31188BFF36F8FBFF3DC
:104CF0004F8FFEE7036C002BE3D04FF0500383F39C
:104D00001188BFF36F8FBFF34F8FFEE700263EE0A1
:104D100039462046FFF7BDFD013DA563236923B950
:104D2000FFF70AFB012005B0F0BD04F1100000F010
:104D3000F1FC0028F4D04FF0E0234FF08052C3F88C
:104D4000042DBFF34F8FBFF36F8FE9E7FFF7F4FA3E
:104D50000020E8E702A800F023FD012621E000235F
:104D600084F8443029E0002384F845302BE02046C5
:104D7000FFF7A1FD00F0A6FB09E02046FFF79BFD31
:104D800000F0A0FB2046FFF73CFD00283FD1FFF7D5
:104D9000B1FAA56B002DBBD1019B002BD6D0002E04
:104DA000D8D0FFF7C9FA00F0F3FAFFF7A3FA94F8A6
:104DB00044305BB2B3F1FF3FD1D094F845305BB2E1
:104DC000B3F1FF3FCFD0FFF7B7FA01A902A800F077
:104DD000F3FC0028D1D12046FFF713FD0028C6D0F0
:104DE000019904F1240000F061FC2046FFF763FD07
:104DF00000F068FB0028CAD14FF0E0234FF080524A
:104E0000C3F8042DBFF34F8FBFF36F8FBFE70020B0
:104E100089E700000023072B0CD8074A52F83320FB
:104E20000AB10133F7E7044A42F8331002EBC30238
:104E300050607047704700BF1C51002070B5044699
:104E40000D461646FFF756FA94F844305BB2B3F1BC
:104E5000FF3F0DD094F845305BB2B3F1FF3F0BD06C
:104E6000FFF76AFAA36B5BB12046FFF724FD70BD24
:104E7000002384F84430EDE7002384F84530EFE761
:104E80003246294604F1240000F028FCECE700003B
:104E9000084B1B681B6823B9074B4FF0FF321A60A1
:104EA0007047044B1B68DB68DB685A68024B1A606A
:104EB000704700BFCC510020645100202DE9F0471D
:104EC00080460D4617469946089EDDF824A00A9CA8
:104ED0009200A521206B01F0D9FD236B07F18042E0
:104EE000013A03EB820727F00707002D61D04FF04E
:104EF000000CBCF10F0F09D815F80C3004EB0C02B4
:104F000082F8343013B10CF1010CF2E7002384F87D
:104F10004330372E00D93726E662E6640025256542
:104F2000201DFFF744F904F11800FFF740F9246150
:104F3000C6F13806A6616462C4F8985184F89C51A1
:104F40004FF4A072294604F1580001F09FFD1B4B5D
:104F5000E36503F168022266D03363660122002311
:104F6000C4E93C2343F20E33A4F8F8304AF6CD33BB
:104F7000A4F8FA3041F23423A4F8FC304EF26D6309
:104F8000A4F8FE304DF6EC63A4F800310523A4F834
:104F900002310B23A4F804314A4641463846FFF754
:104FA0007FF92060BAF1000F01D0CAF80040BDE8D7
:104FB000F087002384F83430ABE700BFBC570020F3
:104FC00038B5002407E004EB840293000E4818442F
:104FD000FFF7E2F80134372CF5D90C4D2846FFF7DE
:104FE000DBF80B4C2046FFF7D7F80A48FFF7D4F858
:104FF0000948FFF7D1F80948FFF7CEF8084B1D60C4
:10500000084B1C6038BD00BFF8510020E45100205F
:10501000D0510020B4510020A05100208851002020
:10502000CC510020C851002010B50446FFF762F9AA
:10503000224A136801331360214B1B685BB1214B7B
:105040001B686BB91E4B1B68DA6AE36A9A4207D881
:105050001B4B1C6004E01A4B1C601368012B29D009
:10506000194A1368013313606364E06A174B1B68C5
:10507000984201D9154B186000EB8000211D144B9C
:1050800003EB8000FFF796F8FFF756F90D4B1B680E
:105090007BB10B4B1B68DA6AE36A9A4209D24FF084
:1050A000E0234FF08052C3F8042DBFF34F8FBFF3BE
:1050B0006F8F10BDFFF784FFD2E700BF845100203F
:1050C0005856002078510020685100207C51002063
:1050D000F851002010B50446583001F0DFFC94F878
:1050E0009D3163B1012B11D0022B0ED04FF0500334
:1050F00083F31188BFF36F8FBFF34F8FFEE7206BF1
:10510000FFF732FB2046FFF72FFB10BD2046FFF7CD
:105110002BFBFAE70F4B1B68D3B110B5FFF7EAF88A
:105120000D4BDB68DC68201DFFF768F80B4A13683D
:10513000013B1360074A1368013B1360FFF7FCF85B
:105140002046FFF7C7FF034B1B68002BE6D110BDBD
:10515000704700BF9C510020A051002084510020C6
:1051600008B5FFF7D7FF074B1B68012BF9D94FF0A4
:10517000E0234FF08052C3F8042DBFF34F8FBFF3ED
:105180006F8FEEE7F851002070B504460D46174BBF
:105190001E68174B18680430FFF730F8B4F1FF3F72
:1051A0000DD03444124B1B685C60A64210D9114BE1
:1051B00018680F4B19680431FFF707F870BD002D10
:1051C000EFD00B4B196804310B48FEF7F3FFF5E7FE
:1051D0000A4B1868064B19680431FEF7F6FF084BB6
:1051E0001B68A342EAD9064B1C60E7E78051002008
:1051F00058560020C851002088510020CC51002072
:105200006451002030B587B00B9C8CB10C9DC5B1AA
:105210004FF4D0750495049DB5F5D07F1AD04FF0AA
:10522000500383F31188BFF36F8FBFF34F8FFEE7F7
:105230004FF0500383F31188BFF36F8FBFF34F8F8D
:10524000FEE74FF0500383F31188BFF36F8FBFF376
:105250004F8FFEE7049D0C9D2C63022485F89D4131
:1052600000240394029505AC01940A9C0094FFF776
:1052700025FE0C98FFF7D8FE059807B030BD2DE944
:10528000F04385B00746884614461E469000FFF757
:10529000E9F910B381464FF4D070FFF7E3F9054602
:1052A000A8B1C0F83090002380F89D31039302909C
:1052B0000D9B01930C9B0093334622464146384692
:1052C000FFF7FCFD2846FFF7AFFE012007E0484648
:1052D000FFF74AFA4FF0FF3001E04FF0FF3005B022
:1052E000BDE8F08310B588B000240594069407AAA1
:1052F00006A905A8FEF738FF059B0293069B0193BC
:1053000000942346079A1A491A48FFF77BFF1A4B65
:105310001860E8B100F05CFB01281AD14FF050038F
:1053200083F31188BFF36F8FBFF34F8F134B1B684D
:105330005833134A1360134B4FF0FF321A60124B6D
:1053400001221A60114B00221A60FFF76DF803E08A
:105350000020B0F1FF3F01D008B010BD4FF0500366
:1053600083F31188BFF36F8FBFF34F8FFEE700BF4A
:10537000E076000861510008605100205856002076
:10538000BC0400206451002078510020805100208E
:10539000024A136801331360704700BF5C5100205C
:1053A000014B1868704700BF80510020F8B53A4B98
:1053B0001B68002B69D1394B1D6801351D60C5B9CB
:1053C000374B1B681B6843B14FF0500383F31188C0
:1053D000BFF36F8FBFF34F8FFEE7314A1168314B38
:1053E000186810601960304A136801331360FFF7C2
:1053F0004FFD2E4B1B68AB423DD900272C4B1B6841
:10540000DB6A03EB83039A002A4B9B58012B00D9DC
:105410000127294B1B68002B3CD001273AE00127CC
:105420001F4B1B681B6843B31D4B1B68DB68DC68A4
:1054300063689D4226D3261D3046FEF7DFFEA36A31
:105440001BB104F11800FEF7D9FEE36A1B4A12688B
:10545000934201D9194A136003EB83039A00314642
:1054600014481044FEF7A6FEE26A114B1B68DB6A83
:105470009A42D4D2D4E70027D2E70C4B4FF0FF3248
:105480001A60BBE7094A1360B8E70D4A1368013395
:10549000136000273846F8BD5C5100208051002081
:1054A000CC510020C85100206C51002064510020D4
:1054B00058560020F8510020705100207C510020E7
:1054C0007451002038B5354B1B6843B94FF0500379
:1054D00083F31188BFF36F8FBFF34F8FFEE7FEF7A3
:1054E00009FF2E4B1A68013A1A601B68002B4FD136
:1054F0002B4B1B680BB900244BE00024294B1B6885
:105500001BB3284BDB68DC6804F11800FEF776FE5D
:10551000251D2846FEF772FEE06A234B1B68984261
:1055200001D9214B186000EB800029461F4B03EB8B
:105530008000FEF73FFEE26A1D4B1B68DB6A9A4261
:10554000DCD31C4B01221A60D8E70CB1FFF7A0FC9A
:10555000194B1C6884B9174B1C68D4B14FF0E02379
:105560004FF08052C3F8042DBFF34F8FBFF36F8FFE
:1055700001240EE0013C07D0FFF718FF0028F9D006
:105580000C4B01221A60F5E70B4B00221A60E2E790
:105590000024FEF7D1FE204638BD00BF5C5100203C
:1055A00084510020B45100207C510020F85100208B
:1055B00058560020705100207451002010B5A8B139
:1055C0000446104B1B6843B14FF0500383F311881E
:1055D000BFF36F8FBFF34F8FFEE7FFF7D9FE0021B8
:1055E0002046FFF7D1FDFFF76DFF48B94FF0E023EC
:1055F0004FF08052C3F8042DBFF34F8FBFF36F8F6E
:1056000010BD00BF5C510020224B1B681BB1224B18
:1056100001221A607047204B00221A601F4B1B6842
:1056200003EB83018A001E498A585AB90BB1013B2A
:10563000F6E74FF0500383F31188BFF36F8FBFF38A
:105640004F8FFEE7084603EB83018A00024451684E
:105650004968516003EB830C4FEA8C020832024424
:1056600091420FD003EB830291000D4A0A44526825
:10567000D1680C4A116009490B60136858330A4A13
:1056800013607047486862469100054A0A445060BA
:10569000E8E700BF5C510020705100207C510020E1
:1056A000F851002058560020BC04002058B110B515
:1056B0000C46094A11681831FEF787FD0121204682
:1056C000FFF762FD10BD4FF0500383F31188BFF365
:1056D0006F8FBFF34F8FFEE75856002038B570B17B
:1056E0000D4614460A4A11681831FEF763FD0CB1E5
:1056F0004FF0FF3521462846FFF746FD38BD4FF0F5
:10570000500383F31188BFF36F8FBFF34F8FFEE712
:105710005856002038B5C368DC6824B304F1180576
:105720002846FEF76BFD184B1B682BBB251D284632
:10573000FEF764FDE06A154B1B68984201D9134BD4
:10574000186000EB80002946114B03EB8000FEF748
:1057500031FDE26A0F4B1B68DB6A9A4211D90120C6
:105760000D4B186038BD4FF0500383F31188BFF321
:105770006F8FBFF34F8FFEE729460848FEF71AFDEB
:10578000E7E70020EEE700BF5C5100207C510020DD
:10579000F85100205856002070510020B4510020CC
:1057A000034B1B680360034B1B684360704700BFDB
:1057B0006C51002080510020F8B5C8B10C46054658
:1057C000F9B1FEF797FD1B4B19686B68C81A226880
:1057D000B2F1FF3F26D0184E36682F68B74201D08D
:1057E0008B4224D9824215D80023236001241AE079
:1057F0004FF0500383F31188BFF36F8FBFF34F8FC8
:10580000FEE74FF0500383F31188BFF36F8FBFF3B0
:105810004F8FFEE75B1A134423602846FFF7C0FF53
:10582000002400E00024FEF787FD2046F8BD012497
:10583000F9E700BF805100206C510020014B01228C
:105840001A60704770510020054B1B6833B1054B3F
:105850001B680BB100207047022070470120704781
:10586000785100205C51002000283BD038B5044618
:105870001E4B1B68834208D04FF0500383F31188FE
:10588000BFF36F8FBFF34F8FFEE7036D43B94FF048
:10589000500383F31188BFF36F8FBFF34F8FFEE781
:1058A000013B0365C16AC26C91421DD00BB100205F
:1058B00038BD051D2846FEF7A1FCE06CE062C0F192
:1058C0003803A3610A4B1B68984201D9084B186042
:1058D00000EB80002946074B03EB8000FEF76AFCD3
:1058E0000120E5E7002070470020E1E7585600203E
:1058F0007C510020F8510020064B1A6813682BB920
:105900000123036023B9D368186870470023F8E7C0
:10591000002070475C57002008B54160006191424B
:105920000CD8D21A83699A4201D3012008BD011D07
:10593000094B1868FEF749FC0020F7E79A4201D2AC
:10594000994206D2011D054B1868FEF73EFC002067
:10595000ECE70120EAE700BF585700205C57002021
:1059600030B583B0FEF7C6FC114B1B681BB1FEF7C8
:10597000E3FC03B030BD0F4D2846FEF70DFC0E4C86
:105980002046FEF709FC0D4B1D600D4B1C600023EB
:1059900000930C4B0C4A10210A20FFF716F8044B19
:1059A00018600028E3D00949FFF734FADFE700BFA9
:1059B0005457002074570020605700205C57002087
:1059C000585700205C560020AC560020E8760008AE
:1059D00010B588B0FFF7C4FF124B1B68CBB1002491
:1059E0000594069407AA06A905A8FEF7C9FB059B1E
:1059F0000293069B0193022300932346079A0A49C8
:105A00000A48FFF7FFFB0A4B186010B1012008B0ED
:105A100010BD4FF0500383F31188BFF36F8FBFF3B6
:105A20004F8FFEE754570020F0760008355D0008E0
:105A300050570020B8B19C4603461848006858B338
:105A400000B585B000910192029305291CDCFFF797
:105A5000FBFE022810D000231A4669460F48006852
:105A6000FEF7FDFF15E04FF0500383F31188BFF3FD
:105A70006F8FBFF34F8FFEE70023069A69460748F2
:105A80000068FEF7ECFF04E0002362466946FFF77A
:105A9000AAF805B05DF804FB0020704754570020B9
:105AA00070B582B01B4B1B681A6862B3DB681E6856
:105AB000DC68251D2846FEF7A1FB236A204698478F
:105AC00094F8283013F0040FECD0A36933449E42BD
:105AD00007D26360246129460E4B1868FEF775FBF8
